{
  "contractName": "Identity",
  "abi": [
    {
      "constant": true,
      "inputs": [
        {
          "name": "_key",
          "type": "bytes32"
        }
      ],
      "name": "getKeyPurpose",
      "outputs": [
        {
          "name": "purpose",
          "type": "uint256"
        }
      ],
      "payable": false,
      "stateMutability": "view",
      "type": "function"
    },
    {
      "constant": true,
      "inputs": [
        {
          "name": "_key",
          "type": "bytes32"
        }
      ],
      "name": "getKey",
      "outputs": [
        {
          "name": "purpose",
          "type": "uint256"
        },
        {
          "name": "keyType",
          "type": "uint256"
        },
        {
          "name": "key",
          "type": "bytes32"
        }
      ],
      "payable": false,
      "stateMutability": "view",
      "type": "function"
    },
    {
      "constant": false,
      "inputs": [
        {
          "name": "_key",
          "type": "bytes32"
        },
        {
          "name": "_purpose",
          "type": "uint256"
        },
        {
          "name": "_type",
          "type": "uint256"
        }
      ],
      "name": "addKey",
      "outputs": [
        {
          "name": "success",
          "type": "bool"
        }
      ],
      "payable": false,
      "stateMutability": "nonpayable",
      "type": "function"
    },
    {
      "constant": true,
      "inputs": [
        {
          "name": "_claimType",
          "type": "uint256"
        }
      ],
      "name": "getClaimIdsByType",
      "outputs": [
        {
          "name": "claimIds",
          "type": "bytes32[]"
        }
      ],
      "payable": false,
      "stateMutability": "view",
      "type": "function"
    },
    {
      "constant": false,
      "inputs": [
        {
          "name": "_claimId",
          "type": "bytes32"
        }
      ],
      "name": "removeClaim",
      "outputs": [
        {
          "name": "success",
          "type": "bool"
        }
      ],
      "payable": false,
      "stateMutability": "nonpayable",
      "type": "function"
    },
    {
      "constant": false,
      "inputs": [
        {
          "name": "_id",
          "type": "uint256"
        },
        {
          "name": "_approve",
          "type": "bool"
        }
      ],
      "name": "approve",
      "outputs": [
        {
          "name": "success",
          "type": "bool"
        }
      ],
      "payable": false,
      "stateMutability": "nonpayable",
      "type": "function"
    },
    {
      "constant": false,
      "inputs": [
        {
          "name": "_key",
          "type": "bytes32"
        }
      ],
      "name": "removeKey",
      "outputs": [
        {
          "name": "success",
          "type": "bool"
        }
      ],
      "payable": false,
      "stateMutability": "nonpayable",
      "type": "function"
    },
    {
      "constant": true,
      "inputs": [
        {
          "name": "_purpose",
          "type": "uint256"
        }
      ],
      "name": "getKeysByPurpose",
      "outputs": [
        {
          "name": "_keys",
          "type": "bytes32[]"
        }
      ],
      "payable": false,
      "stateMutability": "view",
      "type": "function"
    },
    {
      "constant": false,
      "inputs": [
        {
          "name": "_claimType",
          "type": "uint256"
        },
        {
          "name": "_scheme",
          "type": "uint256"
        },
        {
          "name": "_issuer",
          "type": "address"
        },
        {
          "name": "_signature",
          "type": "bytes"
        },
        {
          "name": "_data",
          "type": "bytes"
        },
        {
          "name": "_uri",
          "type": "string"
        }
      ],
      "name": "addClaim",
      "outputs": [
        {
          "name": "claimRequestId",
          "type": "bytes32"
        }
      ],
      "payable": false,
      "stateMutability": "nonpayable",
      "type": "function"
    },
    {
      "constant": false,
      "inputs": [
        {
          "name": "_to",
          "type": "address"
        },
        {
          "name": "_value",
          "type": "uint256"
        },
        {
          "name": "_data",
          "type": "bytes"
        }
      ],
      "name": "execute",
      "outputs": [
        {
          "name": "executionId",
          "type": "uint256"
        }
      ],
      "payable": false,
      "stateMutability": "nonpayable",
      "type": "function"
    },
    {
      "constant": true,
      "inputs": [
        {
          "name": "_claimId",
          "type": "bytes32"
        }
      ],
      "name": "getClaim",
      "outputs": [
        {
          "name": "claimType",
          "type": "uint256"
        },
        {
          "name": "scheme",
          "type": "uint256"
        },
        {
          "name": "issuer",
          "type": "address"
        },
        {
          "name": "signature",
          "type": "bytes"
        },
        {
          "name": "data",
          "type": "bytes"
        },
        {
          "name": "uri",
          "type": "string"
        }
      ],
      "payable": false,
      "stateMutability": "view",
      "type": "function"
    },
    {
      "constant": true,
      "inputs": [
        {
          "name": "_key",
          "type": "bytes32"
        },
        {
          "name": "_purpose",
          "type": "uint256"
        }
      ],
      "name": "keyHasPurpose",
      "outputs": [
        {
          "name": "result",
          "type": "bool"
        }
      ],
      "payable": false,
      "stateMutability": "view",
      "type": "function"
    },
    {
      "inputs": [
        {
          "name": "_claimType",
          "type": "uint256[]"
        },
        {
          "name": "_scheme",
          "type": "uint256[]"
        },
        {
          "name": "_issuer",
          "type": "address[]"
        },
        {
          "name": "_signature",
          "type": "bytes"
        },
        {
          "name": "_data",
          "type": "bytes"
        },
        {
          "name": "_uri",
          "type": "string"
        },
        {
          "name": "_sigSizes",
          "type": "uint256[]"
        },
        {
          "name": "dataSizes",
          "type": "uint256[]"
        },
        {
          "name": "uriSizes",
          "type": "uint256[]"
        }
      ],
      "payable": false,
      "stateMutability": "nonpayable",
      "type": "constructor"
    },
    {
      "anonymous": false,
      "inputs": [
        {
          "indexed": true,
          "name": "claimRequestId",
          "type": "uint256"
        },
        {
          "indexed": true,
          "name": "claimType",
          "type": "uint256"
        },
        {
          "indexed": false,
          "name": "scheme",
          "type": "uint256"
        },
        {
          "indexed": true,
          "name": "issuer",
          "type": "address"
        },
        {
          "indexed": false,
          "name": "signature",
          "type": "bytes"
        },
        {
          "indexed": false,
          "name": "data",
          "type": "bytes"
        },
        {
          "indexed": false,
          "name": "uri",
          "type": "string"
        }
      ],
      "name": "ClaimRequested",
      "type": "event"
    },
    {
      "anonymous": false,
      "inputs": [
        {
          "indexed": true,
          "name": "claimId",
          "type": "bytes32"
        },
        {
          "indexed": true,
          "name": "claimType",
          "type": "uint256"
        },
        {
          "indexed": true,
          "name": "issuer",
          "type": "address"
        },
        {
          "indexed": false,
          "name": "signatureType",
          "type": "uint256"
        },
        {
          "indexed": false,
          "name": "signature",
          "type": "bytes32"
        },
        {
          "indexed": false,
          "name": "claim",
          "type": "bytes"
        },
        {
          "indexed": false,
          "name": "uri",
          "type": "string"
        }
      ],
      "name": "ClaimAdded",
      "type": "event"
    },
    {
      "anonymous": false,
      "inputs": [
        {
          "indexed": true,
          "name": "claimId",
          "type": "bytes32"
        },
        {
          "indexed": true,
          "name": "claimType",
          "type": "uint256"
        },
        {
          "indexed": false,
          "name": "scheme",
          "type": "uint256"
        },
        {
          "indexed": true,
          "name": "issuer",
          "type": "address"
        },
        {
          "indexed": false,
          "name": "signature",
          "type": "bytes"
        },
        {
          "indexed": false,
          "name": "data",
          "type": "bytes"
        },
        {
          "indexed": false,
          "name": "uri",
          "type": "string"
        }
      ],
      "name": "ClaimAdded",
      "type": "event"
    },
    {
      "anonymous": false,
      "inputs": [
        {
          "indexed": true,
          "name": "claimId",
          "type": "bytes32"
        },
        {
          "indexed": true,
          "name": "claimType",
          "type": "uint256"
        },
        {
          "indexed": false,
          "name": "scheme",
          "type": "uint256"
        },
        {
          "indexed": true,
          "name": "issuer",
          "type": "address"
        },
        {
          "indexed": false,
          "name": "signature",
          "type": "bytes"
        },
        {
          "indexed": false,
          "name": "data",
          "type": "bytes"
        },
        {
          "indexed": false,
          "name": "uri",
          "type": "string"
        }
      ],
      "name": "ClaimRemoved",
      "type": "event"
    },
    {
      "anonymous": false,
      "inputs": [
        {
          "indexed": true,
          "name": "claimId",
          "type": "bytes32"
        },
        {
          "indexed": true,
          "name": "claimType",
          "type": "uint256"
        },
        {
          "indexed": false,
          "name": "scheme",
          "type": "uint256"
        },
        {
          "indexed": true,
          "name": "issuer",
          "type": "address"
        },
        {
          "indexed": false,
          "name": "signature",
          "type": "bytes"
        },
        {
          "indexed": false,
          "name": "data",
          "type": "bytes"
        },
        {
          "indexed": false,
          "name": "uri",
          "type": "string"
        }
      ],
      "name": "ClaimChanged",
      "type": "event"
    },
    {
      "anonymous": false,
      "inputs": [
        {
          "indexed": true,
          "name": "executionId",
          "type": "uint256"
        },
        {
          "indexed": true,
          "name": "to",
          "type": "address"
        },
        {
          "indexed": true,
          "name": "value",
          "type": "uint256"
        },
        {
          "indexed": false,
          "name": "data",
          "type": "bytes"
        }
      ],
      "name": "ExecutionFailed",
      "type": "event"
    },
    {
      "anonymous": false,
      "inputs": [
        {
          "indexed": true,
          "name": "key",
          "type": "bytes32"
        },
        {
          "indexed": true,
          "name": "purpose",
          "type": "uint256"
        },
        {
          "indexed": true,
          "name": "keyType",
          "type": "uint256"
        }
      ],
      "name": "KeyAdded",
      "type": "event"
    },
    {
      "anonymous": false,
      "inputs": [
        {
          "indexed": true,
          "name": "key",
          "type": "bytes32"
        },
        {
          "indexed": true,
          "name": "purpose",
          "type": "uint256"
        },
        {
          "indexed": true,
          "name": "keyType",
          "type": "uint256"
        }
      ],
      "name": "KeyRemoved",
      "type": "event"
    },
    {
      "anonymous": false,
      "inputs": [
        {
          "indexed": true,
          "name": "executionId",
          "type": "uint256"
        },
        {
          "indexed": true,
          "name": "to",
          "type": "address"
        },
        {
          "indexed": true,
          "name": "value",
          "type": "uint256"
        },
        {
          "indexed": false,
          "name": "data",
          "type": "bytes"
        }
      ],
      "name": "ExecutionRequested",
      "type": "event"
    },
    {
      "anonymous": false,
      "inputs": [
        {
          "indexed": true,
          "name": "executionId",
          "type": "uint256"
        },
        {
          "indexed": true,
          "name": "to",
          "type": "address"
        },
        {
          "indexed": true,
          "name": "value",
          "type": "uint256"
        },
        {
          "indexed": false,
          "name": "data",
          "type": "bytes"
        }
      ],
      "name": "Executed",
      "type": "event"
    },
    {
      "anonymous": false,
      "inputs": [
        {
          "indexed": true,
          "name": "executionId",
          "type": "uint256"
        },
        {
          "indexed": false,
          "name": "approved",
          "type": "bool"
        }
      ],
      "name": "Approved",
      "type": "event"
    },
    {
      "constant": true,
      "inputs": [
        {
          "name": "_str",
          "type": "bytes"
        },
        {
          "name": "_offset",
          "type": "uint256"
        },
        {
          "name": "_length",
          "type": "uint256"
        }
      ],
      "name": "getBytes",
      "outputs": [
        {
          "name": "",
          "type": "bytes"
        }
      ],
      "payable": false,
      "stateMutability": "view",
      "type": "function"
    },
    {
      "constant": true,
      "inputs": [
        {
          "name": "_str",
          "type": "string"
        },
        {
          "name": "_offset",
          "type": "uint256"
        },
        {
          "name": "_length",
          "type": "uint256"
        }
      ],
      "name": "getString",
      "outputs": [
        {
          "name": "",
          "type": "string"
        }
      ],
      "payable": false,
      "stateMutability": "view",
      "type": "function"
    }
  ],
  "bytecode": "0x60806040523480156200001157600080fd5b50604051620033333803806200333383398101806040528101908080518201929190602001805182019291906020018051820192919060200180518201929190602001805182019291906020018051820192919060200180518201929190602001805182019291906020018051820192919050505060008060008060008033604051808273ffffffffffffffffffffffffffffffffffffffff1673ffffffffffffffffffffffffffffffffffffffff166c0100000000000000000000000002815260140191505060405180910390209050806001600083600019166000191681526020019081526020016000206002018160001916905550600180600083600019166000191681526020019081526020016000206000018190555060018060008360001916600019168152602001908152602001600020600101819055506002600060018152602001908152602001600020819080600181540180825580915050906001820390600052602060002001600090919290919091509060001916905550600180600083600019166000191681526020019081526020016000206000015482600019167f480000bb1edad8ca1470381cc334b1917fbd51c6531f3a623ea8e0ec7e38a6e960405160405180910390a450600093506000925060009150600090505b8d51811015620007ba578b818151811015156200020f57fe5b906020019060200201518e828151811015156200022857fe5b90602001906020020151604051808373ffffffffffffffffffffffffffffffffffffffff1673ffffffffffffffffffffffffffffffffffffffff166c01000000000000000000000000028152601401828152602001925050506040518091039020945060c0604051908101604052808f83815181101515620002a657fe5b9060200190602002015181526020018e83815181101515620002c457fe5b9060200190602002015181526020018d83815181101515620002e257fe5b9060200190602002015173ffffffffffffffffffffffffffffffffffffffff1681526020016200033b8d878c868151811015156200031c57fe5b90602001906020020151620007ce640100000000026401000000009004565b8152602001620003748c858b868151811015156200035557fe5b90602001906020020151620007ce640100000000026401000000009004565b8152602001620003ad8b868a868151811015156200038e57fe5b90602001906020020151620008da640100000000026401000000009004565b815250600460008760001916600019168152602001908152602001600020600082015181600001556020820151816001015560408201518160020160006101000a81548173ffffffffffffffffffffffffffffffffffffffff021916908373ffffffffffffffffffffffffffffffffffffffff160217905550606082015181600301908051906020019062000444929190620009ec565b50608082015181600401908051906020019062000463929190620009ec565b5060a08201518160050190805190602001906200048292919062000a73565b5090505087818151811015156200049557fe5b90602001906020020151840193508581815181101515620004b257fe5b90602001906020020151830192508681815181101515620004cf57fe5b906020019060200201518201915060046000866000191660001916815260200190815260200160002060020160009054906101000a900473ffffffffffffffffffffffffffffffffffffffff1673ffffffffffffffffffffffffffffffffffffffff166004600087600019166000191681526020019081526020016000206000015486600019167f46149b18aa084502c3f12bc75e19eda8bda8d102b82cce8474677a6d0d5f43c5600460008a6000191660001916815260200190815260200160002060010154600460008b60001916600019168152602001908152602001600020600301600460008c60001916600019168152602001908152602001600020600401600460008d60001916600019168152602001908152602001600020600501604051808581526020018060200180602001806020018481038452878181546001816001161561010002031660029004815260200191508054600181600116156101000203166002900480156200068b5780601f106200065f576101008083540402835291602001916200068b565b820191906000526020600020905b8154815290600101906020018083116200066d57829003601f168201915b5050848103835286818154600181600116156101000203166002900481526020019150805460018160011615610100020316600290048015620007125780601f10620006e65761010080835404028352916020019162000712565b820191906000526020600020905b815481529060010190602001808311620006f457829003601f168201915b5050848103825285818154600181600116156101000203166002900481526020019150805460018160011615610100020316600290048015620007995780601f106200076d5761010080835404028352916020019162000799565b820191906000526020600020905b8154815290600101906020018083116200077b57829003601f168201915b505097505050505050505060405180910390a48080600101915050620001f6565b505050505050505050505050505062000b22565b606080600080846040519080825280601f01601f191660200182016040528015620008085781602001602082028038833980820191505090505b509250600091508590505b848601811015620008cd5786818151811015156200082d57fe5b9060200101517f010000000000000000000000000000000000000000000000000000000000000090047f01000000000000000000000000000000000000000000000000000000000000000283838151811015156200088757fe5b9060200101907effffffffffffffffffffffffffffffffffffffffffffffffffffffffffffff1916908160001a9053508180600101925050808060010191505062000813565b8293505050509392505050565b6060806060600080879350856040519080825280601f01601f191660200182016040528015620009195781602001602082028038833980820191505090505b509250600091508690505b858701811015620009de5783818151811015156200093e57fe5b9060200101517f010000000000000000000000000000000000000000000000000000000000000090047f01000000000000000000000000000000000000000000000000000000000000000283838151811015156200099857fe5b9060200101907effffffffffffffffffffffffffffffffffffffffffffffffffffffffffffff1916908160001a9053508180600101925050808060010191505062000924565b829450505050509392505050565b828054600181600116156101000203166002900490600052602060002090601f016020900481019282601f1062000a2f57805160ff191683800117855562000a60565b8280016001018555821562000a60579182015b8281111562000a5f57825182559160200191906001019062000a42565b5b50905062000a6f919062000afa565b5090565b828054600181600116156101000203166002900490600052602060002090601f016020900481019282601f1062000ab657805160ff191683800117855562000ae7565b8280016001018555821562000ae7579182015b8281111562000ae657825182559160200191906001019062000ac9565b5b50905062000af6919062000afa565b5090565b62000b1f91905b8082111562000b1b57600081600090555060010162000b01565b5090565b90565b6128018062000b326000396000f3006080604052600436106100d0576000357c0100000000000000000000000000000000000000000000000000000000900463ffffffff168063032c1a8a146100d557806312aaac701461011a5780631d38124014610175578063262b54f5146101d25780634eee424a146102545780635d2cfd611461029d578063747442d314610393578063862642f5146103e45780639010f7261461042d578063b1a34e0d146104af578063b61d27f6146105f4578063c9100bcb1461069b578063d202158d1461085e578063df9319be146108b1575b600080fd5b3480156100e157600080fd5b5061010460048036038101908080356000191690602001909291905050506109a7565b6040518082815260200191505060405180910390f35b34801561012657600080fd5b5061014960048036038101908080356000191690602001909291905050506109cf565b604051808481526020018381526020018260001916600019168152602001935050505060405180910390f35b34801561018157600080fd5b506101b860048036038101908080356000191690602001909291908035906020019092919080359060200190929190505050610a3e565b604051808215151515815260200191505060405180910390f35b3480156101de57600080fd5b506101fd60048036038101908080359060200190929190505050610cf7565b6040518080602001828103825283818151815260200191508051906020019060200280838360005b83811015610240578082015181840152602081019050610225565b505050509050019250505060405180910390f35b34801561026057600080fd5b506102836004803603810190808035600019169060200190929190505050610d66565b604051808215151515815260200191505060405180910390f35b3480156102a957600080fd5b50610318600480360381019080803590602001908201803590602001908080601f016020809104026020016040519081016040528093929190818152602001838380828437820191505050505050919291929080359060200190929190803590602001909291905050506111e4565b6040518080602001828103825283818151815260200191508051906020019080838360005b8381101561035857808201518184015260208101905061033d565b50505050905090810190601f1680156103855780820380516001836020036101000a031916815260200191505b509250505060405180910390f35b34801561039f57600080fd5b506103ca600480360381019080803590602001909291908035151590602001909291905050506112eb565b604051808215151515815260200191505060405180910390f35b3480156103f057600080fd5b5061041360048036038101908080356000191690602001909291905050506117ff565b604051808215151515815260200191505060405180910390f35b34801561043957600080fd5b506104586004803603810190808035906020019092919050505061196a565b6040518080602001828103825283818151815260200191508051906020019060200280838360005b8381101561049b578082015181840152602081019050610480565b505050509050019250505060405180910390f35b3480156104bb57600080fd5b506105d66004803603810190808035906020019092919080359060200190929190803573ffffffffffffffffffffffffffffffffffffffff169060200190929190803590602001908201803590602001908080601f0160208091040260200160405190810160405280939291908181526020018383808284378201915050505050509192919290803590602001908201803590602001908080601f0160208091040260200160405190810160405280939291908181526020018383808284378201915050505050509192919290803590602001908201803590602001908080601f01602080910402602001604051908101604052809392919081815260200183838082843782019150505050505091929192905050506119d9565b60405180826000191660001916815260200191505060405180910390f35b34801561060057600080fd5b50610685600480360381019080803573ffffffffffffffffffffffffffffffffffffffff16906020019092919080359060200190929190803590602001908201803590602001908080601f0160208091040260200160405190810160405280939291908181526020018383808284378201915050505050509192919290505050611efe565b6040518082815260200191505060405180910390f35b3480156106a757600080fd5b506106ca60048036038101908080356000191690602001909291905050506121e0565b604051808781526020018681526020018573ffffffffffffffffffffffffffffffffffffffff1673ffffffffffffffffffffffffffffffffffffffff168152602001806020018060200180602001848103845287818151815260200191508051906020019080838360005b83811015610750578082015181840152602081019050610735565b50505050905090810190601f16801561077d5780820380516001836020036101000a031916815260200191505b50848103835286818151815260200191508051906020019080838360005b838110156107b657808201518184015260208101905061079b565b50505050905090810190601f1680156107e35780820380516001836020036101000a031916815260200191505b50848103825285818151815260200191508051906020019080838360005b8381101561081c578082015181840152602081019050610801565b50505050905090810190601f1680156108495780820380516001836020036101000a031916815260200191505b50995050505050505050505060405180910390f35b34801561086a57600080fd5b506108976004803603810190808035600019169060200190929190803590602001909291905050506124aa565b604051808215151515815260200191505060405180910390f35b3480156108bd57600080fd5b5061092c600480360381019080803590602001908201803590602001908080601f01602080910402602001604051908101604052809392919081815260200183838082843782019150505050505091929192908035906020019092919080359060200190929190505050612513565b6040518080602001828103825283818151815260200191508051906020019080838360005b8381101561096c578082015181840152602081019050610951565b50505050905090810190601f1680156109995780820380516001836020036101000a031916815260200191505b509250505060405180910390f35b6000600160008360001916600019168152602001908152602001600020600001549050919050565b60008060006001600085600019166000191681526020019081526020016000206000015460016000866000191660001916815260200190815260200160002060010154600160008760001916600019168152602001908152602001600020600201549250925092509193909250565b60008360001916600160008660001916600019168152602001908152602001600020600201546000191614151515610ade576040517f08c379a00000000000000000000000000000000000000000000000000000000081526004018080602001828103825260128152602001807f4b657920616c726561647920657869737473000000000000000000000000000081525060200191505060405180910390fd5b3073ffffffffffffffffffffffffffffffffffffffff163373ffffffffffffffffffffffffffffffffffffffff16141515610c0957610b6e33604051808273ffffffffffffffffffffffffffffffffffffffff1673ffffffffffffffffffffffffffffffffffffffff166c01000000000000000000000000028152601401915050604051809103902060016124aa565b1515610c08576040517f08c379a00000000000000000000000000000000000000000000000000000000081526004018080602001828103825260238152602001807f53656e64657220646f6573206e6f742068617665206d616e6167656d656e742081526020017f6b6579000000000000000000000000000000000000000000000000000000000081525060400191505060405180910390fd5b5b8360016000866000191660001916815260200190815260200160002060020181600019169055508260016000866000191660001916815260200190815260200160002060000181905550816001600086600019166000191681526020019081526020016000206001018190555060026000848152602001908152602001600020849080600181540180825580915050906001820390600052602060002001600090919290919091509060001916905550818385600019167f480000bb1edad8ca1470381cc334b1917fbd51c6531f3a623ea8e0ec7e38a6e960405160405180910390a4600190509392505050565b606060056000838152602001908152602001600020805480602002602001604051908101604052809291908181526020018280548015610d5a57602002820191906000526020600020905b81546000191681526020019060010190808311610d42575b50505050509050919050565b60003073ffffffffffffffffffffffffffffffffffffffff163373ffffffffffffffffffffffffffffffffffffffff16141515610e9357610df833604051808273ffffffffffffffffffffffffffffffffffffffff1673ffffffffffffffffffffffffffffffffffffffff166c01000000000000000000000000028152601401915050604051809103902060016124aa565b1515610e92576040517f08c379a00000000000000000000000000000000000000000000000000000000081526004018080602001828103825260238152602001807f53656e64657220646f6573206e6f742068617665206d616e6167656d656e742081526020017f6b6579000000000000000000000000000000000000000000000000000000000081525060400191505060405180910390fd5b5b60046000836000191660001916815260200190815260200160002060020160009054906101000a900473ffffffffffffffffffffffffffffffffffffffff1673ffffffffffffffffffffffffffffffffffffffff166004600084600019166000191681526020019081526020016000206000015483600019167f3cf57863a89432c61c4a27073c6ee39e8a764bff5a05aebfbcdcdc80b2e6130a60046000876000191660001916815260200190815260200160002060010154600460008860001916600019168152602001908152602001600020600301600460008960001916600019168152602001908152602001600020600401600460008a600019166000191681526020019081526020016000206005016040518085815260200180602001806020018060200184810384528781815460018160011615610100020316600290048152602001915080546001816001161561010002031660029004801561103d5780601f106110125761010080835404028352916020019161103d565b820191906000526020600020905b81548152906001019060200180831161102057829003601f168201915b50508481038352868181546001816001161561010002031660029004815260200191508054600181600116156101000203166002900480156110c05780601f10611095576101008083540402835291602001916110c0565b820191906000526020600020905b8154815290600101906020018083116110a357829003601f168201915b50508481038252858181546001816001161561010002031660029004815260200191508054600181600116156101000203166002900480156111435780601f1061111857610100808354040283529160200191611143565b820191906000526020600020905b81548152906001019060200180831161112657829003601f168201915b505097505050505050505060405180910390a460046000836000191660001916815260200190815260200160002060008082016000905560018201600090556002820160006101000a81549073ffffffffffffffffffffffffffffffffffffffff02191690556003820160006111b99190612620565b6004820160006111c99190612620565b6005820160006111d99190612668565b505060019050919050565b606080600080846040519080825280601f01601f19166020018201604052801561121d5781602001602082028038833980820191505090505b509250600091508590505b8486018110156112de57868181518110151561124057fe5b9060200101517f010000000000000000000000000000000000000000000000000000000000000090047f010000000000000000000000000000000000000000000000000000000000000002838381518110151561129957fe5b9060200101907effffffffffffffffffffffffffffffffffffffffffffffffffffffffffffff1916908160001a90535081806001019250508080600101915050611228565b8293505050509392505050565b600061134833604051808273ffffffffffffffffffffffffffffffffffffffff1673ffffffffffffffffffffffffffffffffffffffff166c01000000000000000000000000028152601401915050604051809103902060026124aa565b15156113bc576040517f08c379a000000000000000000000000000000000000000000000000000000000815260040180806020018281038252601f8152602001807f53656e64657220646f6573206e6f74206861766520616374696f6e206b65790081525060200191505060405180910390fd5b827fb3932da477fe5d6c8ff2eafef050c0f3a1af18fc07121001482600f36f3715d883604051808215151515815260200191505060405180910390a26001151582151514156117c55760016003600085815260200190815260200160002060030160006101000a81548160ff0219169083151502179055506003600084815260200190815260200160002060000160009054906101000a900473ffffffffffffffffffffffffffffffffffffffff1673ffffffffffffffffffffffffffffffffffffffff1660036000858152602001908152602001600020600201600060405180838054600181600116156101000203166002900480156114fe5780601f106114d3576101008083540402835291602001916114fe565b820191906000526020600020905b8154815290600101906020018083116114e157829003601f168201915b50508260ff168152602001925050506000604051808303816000865af19150509050801561168d5760016003600085815260200190815260200160002060030160016101000a81548160ff02191690831515021790555060036000848152602001908152602001600020600101546003600085815260200190815260200160002060000160009054906101000a900473ffffffffffffffffffffffffffffffffffffffff1673ffffffffffffffffffffffffffffffffffffffff16847f1f920dbda597d7bf95035464170fa58d0a4b57f13a1c315ace6793b9f63688b860036000888152602001908152602001600020600201604051808060200182810382528381815460018160011615610100020316600290048152602001915080546001816001161561010002031660029004801561167a5780601f1061164f5761010080835404028352916020019161167a565b820191906000526020600020905b81548152906001019060200180831161165d57829003601f168201915b50509250505060405180910390a46117f9565b60036000848152602001908152602001600020600101546003600085815260200190815260200160002060000160009054906101000a900473ffffffffffffffffffffffffffffffffffffffff1673ffffffffffffffffffffffffffffffffffffffff16847fe10c49d9f7c71da23262367013434763cfdb2332267641728d25cd712c5c6a686003600088815260200190815260200160002060020160405180806020018281038252838181546001816001161561010002031660029004815260200191508054600181600116156101000203166002900480156117b25780601f10611787576101008083540402835291602001916117b2565b820191906000526020600020905b81548152906001019060200180831161179557829003601f168201915b50509250505060405180910390a46117f9565b60006003600085815260200190815260200160002060030160006101000a81548160ff021916908315150217905550600190505b92915050565b60008160001916600160008460001916600019168152602001908152602001600020600201546000191614151561189e576040517f08c379a000000000000000000000000000000000000000000000000000000000815260040180806020018281038252600b8152602001807f4e6f2073756368206b657900000000000000000000000000000000000000000081525060200191505060405180910390fd5b600160008360001916600019168152602001908152602001600020600101546001600084600019166000191681526020019081526020016000206000015460016000856000191660001916815260200190815260200160002060020154600019167f585a4aef50f8267a92b32412b331b20f7f8b96f2245b253b9cc50dcc621d339760405160405180910390a460016000836000191660001916815260200190815260200160002060008082016000905560018201600090556002820160009055505060019050919050565b6060600260008381526020019081526020016000208054806020026020016040519081016040528092919081815260200182805480156119cd57602002820191906000526020600020905b815460001916815260200190600101908083116119b5575b50505050509050919050565b6000808588604051808373ffffffffffffffffffffffffffffffffffffffff1673ffffffffffffffffffffffffffffffffffffffff166c0100000000000000000000000002815260140182815260200192505050604051809103902090503073ffffffffffffffffffffffffffffffffffffffff163373ffffffffffffffffffffffffffffffffffffffff16141515611b6257611ac733604051808273ffffffffffffffffffffffffffffffffffffffff1673ffffffffffffffffffffffffffffffffffffffff166c01000000000000000000000000028152601401915050604051809103902060036124aa565b1515611b61576040517f08c379a00000000000000000000000000000000000000000000000000000000081526004018080602001828103825260258152602001807f53656e64657220646f6573206e6f74206861766520636c61696d207369676e6581526020017f72206b657900000000000000000000000000000000000000000000000000000081525060400191505060405180910390fd5b5b8573ffffffffffffffffffffffffffffffffffffffff1660046000836000191660001916815260200190815260200160002060020160009054906101000a900473ffffffffffffffffffffffffffffffffffffffff1673ffffffffffffffffffffffffffffffffffffffff16141515611c1957600560008981526020019081526020016000208190806001815401808255809150509060018203906000526020600020016000909192909190915090600019169055505b876004600083600019166000191681526020019081526020016000206000018190555086600460008360001916600019168152602001908152602001600020600101819055508560046000836000191660001916815260200190815260200160002060020160006101000a81548173ffffffffffffffffffffffffffffffffffffffff021916908373ffffffffffffffffffffffffffffffffffffffff160217905550846004600083600019166000191681526020019081526020016000206003019080519060200190611cee9291906126b0565b50836004600083600019166000191681526020019081526020016000206004019080519060200190611d219291906126b0565b50826004600083600019166000191681526020019081526020016000206005019080519060200190611d54929190612730565b508573ffffffffffffffffffffffffffffffffffffffff168882600019167f46149b18aa084502c3f12bc75e19eda8bda8d102b82cce8474677a6d0d5f43c58a89898960405180858152602001806020018060200180602001848103845287818151815260200191508051906020019080838360005b83811015611de5578082015181840152602081019050611dca565b50505050905090810190601f168015611e125780820380516001836020036101000a031916815260200191505b50848103835286818151815260200191508051906020019080838360005b83811015611e4b578082015181840152602081019050611e30565b50505050905090810190601f168015611e785780820380516001836020036101000a031916815260200191505b50848103825285818151815260200191508051906020019080838360005b83811015611eb1578082015181840152602081019050611e96565b50505050905090810190601f168015611ede5780820380516001836020036101000a031916815260200191505b5097505050505050505060405180910390a4809150509695505050505050565b6000600360008054815260200190815260200160002060030160019054906101000a900460ff16151515611f9a576040517f08c379a00000000000000000000000000000000000000000000000000000000081526004018080602001828103825260108152602001807f416c72656164792065786563757465640000000000000000000000000000000081525060200191505060405180910390fd5b83600360008054815260200190815260200160002060000160006101000a81548173ffffffffffffffffffffffffffffffffffffffff021916908373ffffffffffffffffffffffffffffffffffffffff1602179055508260036000805481526020019081526020016000206001018190555081600360008054815260200190815260200160002060020190805190602001906120379291906126b0565b50828473ffffffffffffffffffffffffffffffffffffffff166000547f8afcfabcb00e47a53a8fc3e9f23ff47ee1926194bb1350dd007c50b412a6cee8856040518080602001828103825283818151815260200191508051906020019080838360005b838110156120b557808201518184015260208101905061209a565b50505050905090810190601f1680156120e25780820380516001836020036101000a031916815260200191505b509250505060405180910390a461214a33604051808273ffffffffffffffffffffffffffffffffffffffff1673ffffffffffffffffffffffffffffffffffffffff166c01000000000000000000000000028152601401915050604051809103902060016124aa565b806121ac57506121ab33604051808273ffffffffffffffffffffffffffffffffffffffff1673ffffffffffffffffffffffffffffffffffffffff166c01000000000000000000000000028152601401915050604051809103902060026124aa565b5b156121c0576121be60005460016112eb565b505b600080815480929190600101919050555060016000540390509392505050565b600080600060608060606004600088600019166000191681526020019081526020016000206000015460046000896000191660001916815260200190815260200160002060010154600460008a6000191660001916815260200190815260200160002060020160009054906101000a900473ffffffffffffffffffffffffffffffffffffffff16600460008b60001916600019168152602001908152602001600020600301600460008c60001916600019168152602001908152602001600020600401600460008d60001916600019168152602001908152602001600020600501828054600181600116156101000203166002900480601f0160208091040260200160405190810160405280929190818152602001828054600181600116156101000203166002900480156123565780601f1061232b57610100808354040283529160200191612356565b820191906000526020600020905b81548152906001019060200180831161233957829003601f168201915b50505050509250818054600181600116156101000203166002900480601f0160208091040260200160405190810160405280929190818152602001828054600181600116156101000203166002900480156123f25780601f106123c7576101008083540402835291602001916123f2565b820191906000526020600020905b8154815290600101906020018083116123d557829003601f168201915b50505050509150808054600181600116156101000203166002900480601f01602080910402602001604051908101604052809291908181526020018280546001816001161561010002031660029004801561248e5780601f106124635761010080835404028352916020019161248e565b820191906000526020600020905b81548152906001019060200180831161247157829003601f168201915b5050505050905095509550955095509550955091939550919395565b6000806000600102600160008660001916600019168152602001908152602001600020600201546000191614156124e4576000915061250c565b8260016000866000191660001916815260200190815260200160002060000154111590508091505b5092915050565b6060806060600080879350856040519080825280601f01601f1916602001820160405280156125515781602001602082028038833980820191505090505b509250600091508690505b85870181101561261257838181518110151561257457fe5b9060200101517f010000000000000000000000000000000000000000000000000000000000000090047f01000000000000000000000000000000000000000000000000000000000000000283838151811015156125cd57fe5b9060200101907effffffffffffffffffffffffffffffffffffffffffffffffffffffffffffff1916908160001a9053508180600101925050808060010191505061255c565b829450505050509392505050565b50805460018160011615610100020316600290046000825580601f106126465750612665565b601f01602090049060005260206000209081019061266491906127b0565b5b50565b50805460018160011615610100020316600290046000825580601f1061268e57506126ad565b601f0160209004906000526020600020908101906126ac91906127b0565b5b50565b828054600181600116156101000203166002900490600052602060002090601f016020900481019282601f106126f157805160ff191683800117855561271f565b8280016001018555821561271f579182015b8281111561271e578251825591602001919060010190612703565b5b50905061272c91906127b0565b5090565b828054600181600116156101000203166002900490600052602060002090601f016020900481019282601f1061277157805160ff191683800117855561279f565b8280016001018555821561279f579182015b8281111561279e578251825591602001919060010190612783565b5b5090506127ac91906127b0565b5090565b6127d291905b808211156127ce5760008160009055506001016127b6565b5090565b905600a165627a7a72305820031740f987dfe38965e7d20ffa89f5b933f8fb8c32bb40181226c2a83457f1ae0029",
  "source": "pragma solidity ^0.4.22;\n\nimport './ClaimHolder.sol';\n\n// **Warning!** This file is a protoype version of our work around ERC 725.\n// This file is now out of date and **should not be used**.\n// Our current identity contracts are here:\n// https://github.com/OriginProtocol/origin/tree/master/origin-contracts/contracts/identity\n\n/**\n * NOTE: This contract exists as a convenience for deploying an identity with\n * some 'pre-signed' claims. If you don't care about that, just use ClaimHolder\n * instead.\n */\n\ncontract Identity is ClaimHolder {\n\n    function Identity(\n        uint256[] _claimType,\n        uint256[] _scheme,\n        address[] _issuer,\n        bytes _signature,\n        bytes _data,\n        string _uri,\n        uint256[] _sigSizes,\n        uint256[] dataSizes,\n        uint256[] uriSizes\n    )\n        public\n    {\n        bytes32 claimId;\n        uint offset = 0;\n        uint uoffset = 0;\n        uint doffset = 0;\n\n        for (uint i = 0; i < _claimType.length; i++) {\n\n            claimId = keccak256(_issuer[i], _claimType[i]);\n\n            claims[claimId] = Claim(\n                _claimType[i],\n                _scheme[i],\n                _issuer[i],\n                getBytes(_signature, offset, _sigSizes[i]),\n                getBytes(_data, doffset, dataSizes[i]),\n                getString(_uri, uoffset, uriSizes[i])\n            );\n\n            offset += _sigSizes[i];\n            uoffset += uriSizes[i];\n            doffset += dataSizes[i];\n\n            emit ClaimAdded(\n                claimId,\n                claims[claimId].claimType,\n                claims[claimId].scheme,\n                claims[claimId].issuer,\n                claims[claimId].signature,\n                claims[claimId].data,\n                claims[claimId].uri\n            );\n        }\n    }\n\n    function getBytes(bytes _str, uint256 _offset, uint256 _length) constant returns (bytes) {\n        bytes memory sig = new bytes(_length);\n        uint256 j = 0;\n        for (uint256 k = _offset; k< _offset + _length; k++) {\n          sig[j] = _str[k];\n          j++;\n        }\n        return sig;\n    }\n\n    function getString(string _str, uint256 _offset, uint256 _length) constant returns (string) {\n        bytes memory strBytes = bytes(_str);\n        bytes memory sig = new bytes(_length);\n        uint256 j = 0;\n        for (uint256 k = _offset; k< _offset + _length; k++) {\n          sig[j] = strBytes[k];\n          j++;\n        }\n        return string(sig);\n    }\n}\n",
  "sourcePath": "/Users/yujis/bc-hk2019-2/contracts/Identity.sol",
  "compiler": {
    "name": "solc",
    "version": "0.4.25+commit.59dbf8f1.Emscripten.clang"
  },
  "schemaVersion": "2.0.2",
  "updatedAt": "2019-02-16T06:14:07.510Z"
}